:020000040800F2
:10000000C07C00242D04000817520008734F00081C
:1000100015520008AB0700087964000800000000D2
:100020000000000000000000000000006D03000858
:10003000DD09000800000000C903000801550008A0
:100040004B0400084B0400084B0400084B04000854
:100050004B0400084B0400084B0400084B04000844
:100060004B0400084B0400084B040008AD070008CF
:10007000B90700084B0400084B0400084B040008B3
:100080004B0400084B0400084B040008010A000858
:100090004B0400080D0A00084B0400084B0400083C
:1000A0004B0400084B0400084B0400084B040008F4
:1000B0004B04000899560008A55600084B04000898
:1000C0004B0400084B0400084B0400084B040008D4
:1000D0004B0400086D6400084B0400084B04000842
:1000E0004B0400084B040008000000004B0400080B
:1000F0004B0400084B0400084B0400084B040008A4
:100100004B0400084B0400084B0400084B04000893
:100110004B0400084B0400084B0400084B04000883
:100120004B0400084B0400084B0400084B04000873
:100130004B0400084B0400084B040008190A00088F
:1001400000000000000000000000000000000000AF
:100150004B0400084B0400084B0400084B04000843
:100160004B0400084B0400084B0400084B04000833
:100170004B0400084B0400084B040008000000007A
:100180004B0400084B0400084B0400084B04000813
:100190004B0400084B0400084B0400084B04000803
:1001A0004B0400084B0400084B040008000000004A
:1001B0004B0400084B0400084B0400084B040008E3
:1001C0004B0400084B040008000000000000000081
:1001D00000000000000000004B04000800000000C8
:1001E000000000000000000000000000000000000F
:1001F00000000000000000004B0400084B04000851
:100200004B0400084B040008000000004B040008E9
:100210004B0400084B0400084B0400084B04000882
:100220004B040008000000004B0400080000000020
:100230004B0400084B040008000000004B040008B9
:100240004B0400084B0400084B0400084B04000852
:100250004B0400084B0400084B0400084B04000842
:100260004B0400084B0400084B0400084B04000832
:100270004B0400084B0400084B0400080000000079
:100280004B0400084B0400084B0400084B04000812
:10029000000000004B0400084B04000800000000B0
:1002A000000000004B0400084B0400084B04000849
:1002B0004B0400084B0400084B0400084B040008E2
:1002C0004B0400088D5600084B04000800F002F8AB
:1002D00000F03CF80AA090E8000C82448344AAF1A4
:1002E0000107DA4501D100F031F8AFF2090EBAE8A2
:1002F0000F0013F0010F18BFFB1A43F0010318475A
:10030000FC8500003C860000103A24BF78C878C104
:10031000FAD8520724BF30C830C144BF04680C600B
:10032000704700000023002400250026103A28BF53
:1003300078C1FBD8520728BF30C148BF0B60704757
:100340001FB508F035FA1FBD10B510BD00F0F3F968
:100350001146FFF7F5FF06F02DFB00F011FA03B48C
:10036000FFF7F2FF03BC00F019FA00002C4B1968EC
:100370000868B0E8F04F80F30988BFF36F8F4FF043
:10038000000080F3118870470000000008480068F2
:10039000006880F308884FF0000080F3148862B68C
:1003A00061B6BFF34F8FBFF36F8F00DF00BF00BF99
:1003B00008ED00E0DFF80C00016841F47001016015
:1003C000704700BF88ED00E0EFF30980BFF36F8F47
:1003D000134B1A681EF0100F08BF20ED108A20E999
:1003E000F04F106009B44FF0500080F31188BFF354
:1003F0004F8FBFF36F8F07F07DFC4FF0000080F34D
:10040000118809BC19680868B0E8F04F1EF0100F99
:1004100008BFB0EC108A80F30988BFF36F8F704774
:1004200010000020EFF30580704700000A48804765
:100430000A4880470A480047FEE7FEE7FEE7FEE776
:10044000FEE7FEE7FEE7FEE7FEE7FEE705480649B2
:10045000064A074B70470000E5090008B55500083B
:10046000CD020008C05C0020C07C0024C07C0020BD
:10047000C078002453EA020C00F069802DE9F04BAB
:100480004FF00006002B1FBFB3FA83F503FA05F403
:1004900024FA05F65E4012BF1643B2FA82F502FA5C
:1004A00005F4C5F120051EBF22FA05FC44EA0C0440
:1004B000203556EA044C4FEA144418BF641C4FF030
:1004C00000084FF00009904271EB030C39D300296A
:1004D00019BFB1FA81F701FA07F6B0FA80F700FA0E
:1004E00007F6C7F120071EBF20FA07FC46EA0C06F4
:1004F0002037B6FBF4FCA7EB0507103F07F01F0BF6
:10050000CBF120060CFA0BFB2CFA06F644BFB346DF
:100510000026202FA4BF5E464FF0000B5BEA060CBE
:1005200008BF4FF0010B19EB0B09ABFB027C48EB4A
:100530000608C01B06FB02CC0BFB03CC71EB0C01C5
:10054000C1E70B46024641464846BDE8F08B13B56D
:100550004FF000004FF00001AFF30080BDE81C40F9
:10056000704710B5431C02E010F8011B71B1810700
:10057000FAD14FF0013202C88C1A8C4314EAC2112E
:10058000F9D0C01A0A0603D0C01E10BDC01A10BD93
:100590000A0401D0801E10BD0902FCD0401E10BD0F
:1005A000032A40F2308010F0030C00F0158011F89F
:1005B000013BBCF1020F624498BF11F801CB00F877
:1005C000013B38BF11F8013BA2F1040298BF00F8CB
:1005D00001CB38BF00F8013B11F0030300F0258088
:1005E000083AC0F0088051F8043B083A51F804CBAF
:1005F000A0E80810F5E7121D5CBF51F8043B40F875
:10060000043BAFF30080D20724BF11F8013B11F87F
:1006100001CB48BF11F8012B24BF00F8013B00F8C3
:1006200001CB48BF00F8012B704710B5203AC0F04D
:100630000B80B1E81850203AA0E81850B1E81850E3
:10064000A0E81850BFF4F5AF5FEA027C24BFB1E820
:100650001850A0E8185044BF18C918C0BDE8104091
:100660005FEA827C24BF51F8043B40F8043B08BF9A
:100670007047D20728BF31F8023B48BF11F8012B61
:1006800028BF20F8023B48BF00F8012B704702F05A
:10069000FF0343EA032242EA024200F02CB84FF083
:1006A000000200B5134694469646203922BFA0E8C2
:1006B0000C50A0E80C50B1F12001BFF4F7AF0907CE
:1006C00028BFA0E80C5048BF0CC05DF804EB8900BF
:1006D00028BF40F8042B08BF704748BF20F8022B02
:1006E00011F0804F18BF00F8012B7047704770471A
:1006F00070474FF000020429C0F0128010F0030C84
:100700003FF4CFAFCCF1040CBCF1020F18BF00F8DE
:10071000012BA8BF20F8022BA1EB0C01FFF7C1BFF2
:100720005FEAC17C24BF00F8012B00F8012B48BF11
:1007300000F8012B7047754600F02CF8AE46050016
:100740006946534620F00700854618B020B5FFF7EC
:100750007DFEBDE820404FF000064FF000074FF04F
:1007600000084FF0000B21F00701AC46ACE8C009CF
:10077000ACE8C009ACE8C009ACE8C0098D467047D8
:1007800010B50446AFF300802046BDE81040FFF7E7
:10079000E6BD000000487047605C00200149182059
:1007A000ABBEFEE7260002007047FEE7014800F0FE
:1007B0004DBD0000AC300024014800F047BD0000F2
:1007C00024310024294A016891423AD0274A18323C
:1007D000914236D0254A3032914232D0234A4832B3
:1007E00091422ED0214A603291422AD01F4A78325B
:1007F000914226D01D4A9032914222D01B4AA83203
:1008000091421ED01A4A91421BD0194A1832914285
:1008100017D0174A3032914213D0154A48329142CC
:100820000FD0134A603291420BD0114A7832914274
:1008300007D00F4A9032914203D00D4AA83291421C
:1008400011D1CAB21823103AB2FBF3F26FF30901C7
:10085000032A02F00703074AD25CC26500D9091DCA
:1008600081650846704721F0FF01F9E7100002405A
:10087000100402400488000830B5224A01230168B0
:100880009142CAB21BD01F4C1434A14217D01D4C48
:100890002834A14213D01B4C3C34A1420FD0194C38
:1008A0005034A1420BD0174C6434A14207D0154CF0
:1008B0007834A14203D0134C8C34A1420CD11421C2
:1008C000114C083AB2FBF1F10F4A803201F01F05DA
:1008D00004EB8101AB4010E00C4D1824103A0D449C
:1008E000B2FBF4F1A82D00D80831094A01F01F0429
:1008F00002EB8101064AA3408032603080E80E009E
:1009000030BD00000854025800580258F0FBFDBFEB
:100910000008024010B50279531E072B2DD8174C42
:100920000168A1421BD0154C1434A14217D0134CBE
:100930002834A14213D0114C3C34A1420FD00F4CAB
:100940005034A1420BD00D4C6434A14207D00B4C63
:100950007834A14203D0094C8C34A14203D1084918
:10096000074C443102E00749064C443104EB820253
:10097000C0E91B2101219940416710BD085402586C
:10098000FC580258FC08024010B583694FF0C0744F
:10099000826A0146002053B1B3F5005F15D072B1F1
:1009A000012A0CD0022A0AD0032A09D104E01AB184
:1009B000012A06D0022A03D1C96AC90100D5012043
:1009C00010BDC96AA142FAD010BD002AF7D0012A91
:1009D000F2D0022AF3D0032AF3D010BD704772B6CA
:1009E000FEE70000054805490839026842F00202A6
:1009F000026008688004FCD5704700000C4802586B
:100A0000014801F06BBB0000E04E0020014801F0FE
:100A100065BB0000E04E0020014801F05FBB000014
:100A2000E04E0020F0B503684FF6FC716D4C426B50
:100A3000D3F884508D4345EA8205C3F88450036897
:100A400053F8845F068F25F47F0545EA06451D604F
:100A5000836B654D9F180268D2F888308B4343EA58
:100A60008703C2F88830026852F8883F868F23F4E3
:100A7000FE0343EA06431360066856F8A03FC26BC4
:100A80008B4307EB420243EA82033360076857F85F
:100A9000A03FB0F8406023F4FE0343EA06433B6006
:100AA000D0E9103603FB06220368D3F8B0608E430A
:100AB00046EA8206C3F8B0600368B0F84860D3F82D
:100AC000B07027F4FE0747EA0646C3F8B060D0E9E5
:100AD0001267036806FB0722D3F8AC608E4346EA30
:100AE0008206C3F8AC60D0E91467036806FB0722EE
:100AF000D3F8F0608E4346EA8206C3F8F0600368DC
:100B0000B0F85860D3F8F07027F47C1747EA06462F
:100B1000C3F8F0600368876D53F8C06F02EB4702BB
:100B20008E4346EA820119600168B0F85C20D1F872
:100B3000C03023F47C1343EA0242C1F8C0200168AC
:100B400090F86020D1F8C03023F07C5343EA026271
:100B5000C1F8C020416B04EB8101C166826B01EBDF
:100B600082020267C36B02EBC3024267D0E9103412
:100B7000634302EB83028267D0E91234634302EBE2
:100B80008302C267D0E91434634302EB8302C0F8E6
:100B90008020836D02EBC303C0F88430C46D826E85
:100BA000544303EB8403C0F88830046E544303EBD2
:100BB0008402C0F89020AA420AD9D0F89C200321D0
:100BC00042F02002C0F89C2080F898100120F0BD6F
:100BD000002200E004C1D0F890308B42FAD8002007
:100BE000F0BD000000AC0040FCD30040F0B58E68C2
:100BF0000C69D1E9005744EA0604DFB145F08045AD
:100C00002C43866ED1E906C54F695E4391F82030CA
:100C100045EA0C05B1F80CC0D0F884E0002047EAA2
:100C20000363104F1D430EEB860345EA0C45E3E8D2
:100C3000024511E044EA8544E3E71418155CA67800
:100C400094F803C094F801E0360445EA0C6446EADF
:100C50000E252C43001D10C3CC683C5D8442ECD8AB
:100C6000F0BD00000C8800082DE9F84F044601F0A3
:100C700097FF00903CB194F83500022806D08021FF
:100C800061650020E4E00120BDE8F88FC74DC74E44
:100C9000C649183520683036DFF81483DFF814931E
:100CA0008842DFF814A3DFF814B32ED0A8422CD06A
:100CB000B0422AD0404528D0484526D0504524D0BF
:100CC000584522D0BD4A183290421ED0BC4A9042AC
:100CD0001BD0BB4A1832904217D0B94A30329042EA
:100CE00013D0B74A483290420FD0B54A6032904292
:100CF0000BD0B34A7832904207D0B14A903290423A
:100D000003D0AF4AA832904209D1026822F01E02F5
:100D100002602068426922F08002426103E00268BA
:100D200022F00E02026027688F4238464DD0A8425A
:100D30004BD0B04249D0404547D0484545D05045BA
:100D400043D0584541D09D4A183290423DD09C4AEC
:100D500090423AD09A4A1832904236D0984A30326D
:100D6000904232D0964A483290422ED0944A603215
:100D700090422AD0924A7832904226D0904A9032BD
:100D8000904222D08E4AA83290421ED08D4A904284
:100D90001BD08C4A1432904217D08A4A2832904293
:100DA00013D0884A3C3290420FD0864A503290424B
:100DB0000BD0844A6432904207D0824A7832904203
:100DC00003D0804A8C32974204D1206E026822F40C
:100DD0008072026075492068884228D0A84226D0D7
:100DE000B04224D0404522D0484520D050451ED0A6
:100DF00058451CD071491831884218D07049884232
:100E000015D06F491831884211D06D493031884270
:100E10000DD06B494831884209D069496031884218
:100E200005D067497831884201D065499031016821
:100E300021F0010101600EE001F0B2FE0099401ABC
:100E4000052808D9202262650321002084F8351086
:100E500084F8340017E73868C007EDD1534A012100
:100E6000206890422ED0A8422CD0B0422AD04045D3
:100E700028D0484526D0504524D0584522D04F4B45
:100E8000183398421ED04E4B98421BD04C4B18330F
:100E9000984217D04A4B3033984213D0484B4833CE
:100EA00098420FD0464B603398420BD0444B783376
:100EB000984207D0424B9033984203D0404BA8331E
:100EC000984208D194F85C703F23A06D07F01F078B
:100ED000BB40836007E094F85C30A06D03F01F0313
:100EE00001FA03F34360206890424DD0A8424BD0F2
:100EF000B04249D0404547D0484545D0504543D001
:100F0000584541D02D4A183290423DD02C4A90424B
:100F10003AD02B4A1832904236D0294A3032904289
:100F200032D0274A483290422ED0254A6032904231
:100F30002AD0234A7832904226D0214A90329042D9
:100F400022D01F4AA83290421ED01E4A90421BD087
:100F50001C4A1432904217D01A4A2832904213D0B9
:100F6000184A3C3290420FD0164A503290420BD071
:100F7000144A6432904207D0124A7832904203D029
:100F8000104A8C3290420BD1D4E919024260E06ED3
:100F900030B1026822F480720260D4E91C0242601F
:100FA000002084F8351084F834006DE6100002400B
:100FB000580002407000024088000240A000024039
:100FC00010040240085402582DE9F05F28B190F84F
:100FD0003510022904D0802141650120BDE8F09F31
:100FE000904C904B0168183C18338E4ADFF83C92C5
:100FF000A1428D4CDFF838E28E4FDFF83CB2DFF8CB
:101000003CA28F4D8F4E31D091422FD099422DD09E
:10101000A1422BD0494529D0714527D0B94225D0CE
:10102000DFF810C20CF1180C61451FD0DFF808C2C0
:10103000ACF1600C614519D0DFF8FCC1ACF1480C93
:10104000614513D0DFF8F0C1ACF1300C61450DD033
:10105000DFF8E4C1ACF1180C614507D0594505D063
:10106000514503D0A94201D0B1422CD1DFF8B4C11F
:101070004FF0040880F83580ACF1180C61451DD0A4
:1010800091421BD0994219D0A14217D0494515D0A1
:10109000714513D0B94211D06648183081420DD045
:1010A00065486038814209D063484838814205D09C
:1010B00061483038814201D05F481838086820F014
:1010C00001000860ABE0D1F800C02CF00E08DFF89A
:1010D00054C1C1F80080ACF1180C0168614527D0FB
:1010E000914225D0994223D0A14221D049451FD019
:1010F00071451DD0B9421BD0DFF838C10CF1180C76
:10110000614515D0DFF830C1ACF1600C61450FD0FE
:10111000DFF824C1ACF1480C614509D0DFF818C1F3
:10112000ACF1300C614503D0DFF80CC1ACF1180C08
:10113000D1F800C02CF0010CC1F800C0DFF8E48049
:101140004FF0010C0168A8F11808414546D09142C2
:1011500044D0994242D0A14240D049453ED0714549
:101160003CD0B9423AD0334A1832914236D0324A52
:10117000603A914232D0304A483A91422ED02E4ABB
:10118000303A91422AD02C4A183A914226D05945F9
:1011900024D0514522D0A94220D0B1421ED02A4AA3
:1011A00091421BD0284A1432914217D0264A283245
:1011B000914213D0244A3C3291420FD0224A5032FD
:1011C00091420BD0204A6432914207D01E4A7832B5
:1011D000914203D01C4A8C32914218D1016E0A68A8
:1011E00022F480720A6090F85C20816D02F01F0288
:1011F0000CFA02F24A60D0E919124A60C16E31B1AC
:101200000A6822F480720A60D0E91C124A60002247
:10121000016D80F835C080F8342001B18847002086
:10122000DCE6000028000240580002407000024046
:1012300088000240A000024070040240880402407E
:10124000A0040240B8040240085402582DE9FC5F93
:101250000446F74E0020DFF8D88300904FF4165272
:10126000F44808F11808A56DDFF8C493DFF8C0A3AF
:10127000016809F1300920680AF1480AB1FBF2F16E
:10128000B04201912F68D5F800C0DFF8ACB335D07B
:101290004146884232D0484530D050452ED058453E
:1012A0002CD0E5491831884228D0E34930318842B2
:1012B00024D0E1494831884220D0E04988421DD0FD
:1012C000DE491831884219D0DC493031884215D0C6
:1012D000DA494831884211D0DFF860E30EF1600E40
:1012E00070450BD0D54A7832904207D0D34B90331B
:1012F000984203D0D149A83188427DD194F85C202E
:10130000082102F01F0201FA02F23A424AD0B0422A
:1013100032D0404530D048452ED050452CD058458D
:101320002AD0C54A1832904226D0C34A3032904261
:1013300022D0C14A483290421ED0C04A90421BD0AF
:10134000BE4A1832904217D0BC4A3032904213D075
:10135000BA4A483290420FD0B84A603290420BD01D
:10136000B64A7832904207D0B44A9032904203D0C5
:10137000B24AA832904203D1026802F0040202E0AD
:10138000026802F008026AB1026822F004020260F8
:1013900094F85C0000F01F008140A960606D40F08F
:1013A0000100606594F85C00012100F01F0081409D
:1013B000394240D02068B04234D0404532D0484510
:1013C00030D050452ED058452CD09B4A18329042F0
:1013D00028D0994A3032904224D0974A48329042DD
:1013E00020D0964A90421DD0944A1832904219D08B
:1013F000924A3032904200E0AFE113D08F4A483237
:1014000090420FD08D4A603290420BD08B4A783296
:10141000904207D0894A9032904203D0874AA8323E
:1014200090427DD1406910F0800F04D0A960606DBA
:1014300040F00200606594F85C00042100F01F0099
:10144000814039423ED02068B04232D0404530D051
:1014500048452ED050452CD058452AD0764A1832CF
:10146000904226D0744A3032904222D0724A48329A
:1014700090421ED0714A90421BD0704A183290425E
:1014800017D06E4A3032904213D06C4A48329042A4
:101490000FD06A4A603290420BD0684A783290424C
:1014A00007D0664A9032904203D0644AA8329042F4
:1014B0004ED1006810F0020F04D0A960606D40F0BA
:1014C0000400606594F85C00102100F01F0081406A
:1014D000394258D02068B04234D0404532D04845D7
:1014E00030D050452ED058452CD0534A1832904217
:1014F00028D0514A3032904224D04F4A483290424C
:1015000020D04E4A90421DD04C4A1832904219D0F9
:101510004A4A3032904215D0484A4832904200E060
:1015200014E00FD0454A603290420BD0434A7832E3
:10153000904207D0414A9032904203D03F4AA832AD
:10154000904207D1006800F0080006E0006872E7EA
:101550000068B7E7006800F00400A0B1A960206847
:101560000168490304D50068000308D5A16C07E0B1
:101570000168C90503D4016821F008010160216CEC
:1015800009B12046884794F85C00202100F01F0034
:101590008140394279D02068B04232D0404530D0C5
:1015A00048452ED050452CD058452AD0224A1832D2
:1015B000904226D0204A3032904222D01E4A4832F1
:1015C00090421ED01D4A90421BD01C4A18329042B5
:1015D00017D01A4A3032904213D0184A48329042FB
:1015E0000FD0164A603290420BD0144A78329042A3
:1015F00007D0124A9032904203D0104AA83290424B
:1016000003D1006800F0100002E0006800F0020062
:10161000B0B3A96094F835000428206801680FD0A1
:1016200049037ED5006800032BD4616C2AE00000DA
:101630001000024008000020700002401004024028
:1016400021F0160101602068416921F080014161AB
:10165000206C08B9A06C20B12068016821F0080155
:10166000016094F85C303F21012003F01F03002249
:101670009940A96084F8350084F83420216D65E034
:1016800003E0E16B09B120468847606D00287DD0FA
:10169000606DC00759D02068042184F83510B0422D
:1016A0002BD0404529D0484527D0504525D0584516
:1016B00023D09D49884220D09B49183188421CD0B4
:1016C00099493031884218D09849884215D09749B5
:1016D0001831884211D09549303188420DD0934954
:1016E0004831884209D091496031884205D08F49FC
:1016F0007831884201D08D499031016821F0010193
:10170000016020680099019A491C0091914202D819
:101710000168C907F6D10068C00710D003200FE0A8
:10172000FFE70168C905ACD403680121002223F05A
:101730001003036084F8351084F83420A1E70120F9
:1017400084F83500002084F83400E16C00291DD0B5
:1017500002B02046BDE8F05F0847754988421DD0B9
:1017600073491431884219D071492831884215D003
:101770006F493C31884211D06D49503188420DD0BB
:101780006B496431884209D0694900E084E07831CE
:10179000884203D066498C3188427DD194F85C80C0
:1017A0000427016808F01F0807FA08F717EA0C0F6A
:1017B000009746D04F0744D500980F04686003D5C2
:1017C000C8033CD4A16CC1E7880638D42068B04275
:1017D0002DD055496039884229D0484527D05045F9
:1017E00025D0584523D05049884220D04E49183141
:1017F00088421CD04C493031884218D04B4988422D
:1018000015D04A491831884211D0484930318842B0
:101810000DD046494831884209D0704507D09042E2
:1018200005D0984203D04149A831884203D10168CC
:1018300021F0080102E0016821F004010160216C3F
:1018400084E7022707FA08F717EA0C0F00974ED033
:101850008F074CD500980F04686003D5C80344D4A3
:10186000616C73E7880640D42068B0422FD02E49BF
:10187000603988422BD0484529D0504527D058455B
:1018800025D02949884222D02749183188421ED0C4
:1018900025493031884200E044E018D0234988428D
:1018A00015D022491831884211D020493031884260
:1018B0000DD01E494831884209D0704507D090426A
:1018C00005D0984203D01949A831884203D1016854
:1018D00021F0140102E0016821F00A0101600121F8
:1018E00084F83510002084F83400E16B2EE70822DC
:1018F00002FA08F212EA0C0F14D0090712D5016897
:1019000021F00E01016094F85C100120002201F02A
:101910001F0100FA01F16960606584F8350084F800
:10192000342012E7BDE8FC9F88000240100402400A
:10193000085402582DE9F05F044601F031F9002CFB
:1019400007467DD0E24E022120684FF00308DFF801
:1019500084934FF00005DFF880A3B042DFF87CB33A
:1019600034D0DB4A1832904230D048452ED0504512
:101970002CD058452AD0D94A1832904226D0D74A7E
:101980003032904222D0D54A483290421ED0D44ABA
:1019900090421BD0D24A1832904217D0D04A3032EF
:1019A000904213D0CE4A483290420FD0CC4A603297
:1019B00090420BD0CA4A7832904207D0C84A90323F
:1019C000904203D0C64AA83290427DD184F83510A7
:1019D000B04284F834502ED0BD49183188422AD004
:1019E000484528D0504526D0584524D0BB49183109
:1019F000884220D0B949303188421CD0B74948319B
:101A0000884218D0B649884215D0B5491831884265
:101A100011D0B349303188420DD0B14948318842A4
:101A200009D0AF496031884205D0AD49783188424C
:101A300001D0AB499031016821F00101016008E05B
:101A400025E100BF01F0ACF8C01B052801D9202119
:101A50001AE120680068C007F4D1D4E902032168C4
:101A6000103418438E4694E88410D4E9033809688A
:101A70003A4310439B4A40EA0C00676918431140FF
:101A8000103C40EA0800042F40EA010003D1D4E9E9
:101A90000B12114308436168A1F12902052A0BD9F1
:101AA000163A032A08D9083A012A05D9083A032A1E
:101AB00002D97439032901D840F48010CEF800000F
:101AC0002068676A406900E020E0042F20F00700EA
:101AD00047EA00070DD1D4E90A01074349B120467E
:101AE000FEF752FF28B140206065012184F83510CF
:101AF000CDE0206847612046FEF764FE94F85C2044
:101B00003F2102F01F029140816055E0764A9042E9
:101B10001BD0754B1433984217D0734B283398421F
:101B200013D0714B3C3398420FD06F4B50339842D7
:101B30000BD06D4B6433984207D06B4B783398428F
:101B400003D0694B8C3398427ED184F8351084F8E9
:101B50003450664B0168A26801EA030E402A74D033
:101B6000802A73D05FF00002D4E90378D4E905310C
:101B700042EAD70242EAD8085B4AD4E9077C48EA3D
:101B8000D30848EAD10141EAD701524241EA1C1187
:101B9000142341EA0E01016020681044B0FBF3F009
:101BA0008000E0652046FEF70DFE94F85C200121E0
:101BB00002F01F02914041602068B04257D0444972
:101BC0001831884253D0484551D050454FD05845E0
:101BD0004DD042491831884249D04049303188427D
:101BE00045D03E494831884241D03D4988423ED0A7
:101BF0003B49183188423AD039493031884236D091
:101C000037494831884232D03549603188422ED038
:101C10003349783188422AD031499031884226D0E0
:101C20002F49A831884222D02F4988421FD02E49FF
:101C3000143188421BD02C492831884217D02A49B8
:101C40003C31884213D002E01DE017E018E026493D
:101C5000503188420BD024496431884207D0224950
:101C60007831884203D020498C31884229D12046DE
:101C7000FEF702FEA06880280CD00CE0102273E76B
:101C80004FF4804270E74021616584F8358001207F
:101C9000BDE8F09F6560216E20790860D4E91901E4
:101CA00041606068401E072808D82046FEF732FED3
:101CB000E06E0560D4E91C01416002E0E56625673D
:101CC00065670120656584F835000020E0E70000C5
:101CD00010000240400002405800024070000240E4
:101CE000100402403F8010FE085402580F00FEFF0F
:101CF00070B5044600F054FF0546601C02D004484D
:101D00000078044400F04CFF401BA042FAD370BDA1
:101D10000C00002410B590F89830012B09D0022B4C
:101D200007D0D0F89C1041F00201C0F89C100120AF
:101D300010BD03689C6D0C4203D1DC6D44F00104BE
:101D400004E09C6D31EA04041FD00324DC658B059C
:101D500005D50368D3F8E0401443C3F8E0404B05D1
:101D600005D50368D3F8E4401443C3F8E4400068A1
:101D7000084A01EA0203446D074A1C43446510689F
:101D800040EA91701060002010BDDC6D44F0020448
:101D9000DCE70000FFFFCF3F14A8004070B5044609
:101DA00090F89800022804D0D4F89C0040F0080075
:101DB0000DE02068D0F8C03013F07C5F0BD0D0F875
:101DC000C4309B020CD5D4F89C0040F40070C4F8D9
:101DD0009C00012070BDD4F89C0040F02000F6E784
:101DE000D0F8C400C0F3044520462B46FEF7FEFEA3
:101DF00021680120A840C1F8D000C4F89400002058
:101E000070BD704790F89830012B07D0D0F89C1027
:101E100041F00401C0F89C100120704761B10068D6
:101E2000012913D0D0F8B01021F0FE4141EA02613F
:101E3000C0F8B010002070470068D0F8F01021F012
:101E40007C5141EA0261C0F8F010F3E7D0F8A0102D
:101E500021F0FE4141EA0261C0F8A010EAE770B546
:101E600090F89820012A09D0022A07D0D0F89C10B7
:101E700041F00201C0F89C10012070BD0B68CA68D7
:101E800083B10B69072A43EA427325D00C7A4A6969
:101E900042EA84724968006F00EBC100C0E9003279
:101EA000002070BD072A0DD00C7AD6060D8A4B692A
:101EB00043EA847246EA0543C06E49681A4340F813
:101EC0002120EDE70B8A4FF06055D1E9062442EA64
:101ED000034245EA0423EFE78A69DBE730B590F86F
:101EE0009850039C012D07D0D0F89C1041F00401BC
:101EF000C0F89C10012030BD0D01016845EA820048
:101F000040EA43002043C1F88000002030BD10B5F6
:101F100004000FD000F036FC2068C16D21F00301F1
:101F2000C165204600F08CFB0020C4F89C0084F8BA
:101F3000980010BD012010BD7047890104D50068CC
:101F4000816921F00101816170470000F0B590F8CE
:101F500098500024022D04D0D0F89C1041F00801C4
:101F600029E0402905D0412929D0056D8D4219D994
:101F700042E00568D5F8A06016F4FE0F12D0D5F83F
:101F8000A460760613D0D5F8A460F60105D5D5F87F
:101F9000A06016F0004F00D50124D5F8A470466F5C
:101FA000456C24E0D0F89C1041F0200103E0D0F80B
:101FB0009C1041F48071C0F89C100120F0BD0568B0
:101FC000D5F8B06016F4FE0FECD0D5F8B460760604
:101FD000EDD0D5F8B460F60105D5D5F8B06016F0AF
:101FE000004F00D50124D5F8B470866FC56CC7F3D7
:101FF00005273C44654302E0456DC66F4D4306EB43
:1020000085052E6816F0804656602E6836D026F07C
:1020100060461660D5F800C000262E4F0CF0005C1C
:10202000C2F808C0D5F800C00CF0004CC2F810C0CF
:10203000B5F804C01FFA8CFCC2F81CC0D5F804C067
:10204000CCF3034CC2F80CC0D5F804C00CF4801CCF
:10205000C2F814C0D5F804C00CF4001CC2F818C0B3
:10206000D5F804C0CCF3066CC2F820C0D5F804C083
:1020700008354FEADC7CC2F824C008E0C6F38A4683
:10208000C7E700BF15F806C003F806C0761CD2F8F3
:102090000CC017F80CC0B445F4D840290AD0412927
:1020A0000CD020294FF001020CD200688A40C0F801
:1020B00098200DE00068C0F8A84009E00068C0F86A
:1020C000B84005E0006801F01F018A40C0F89C207C
:1020D0000020F0BD0C880008704700002DE9FF5F6C
:1020E000DFF80CB304460BF10401DBF800002568AF
:1020F0000F68AA468007D5F85090696DD5F85080D2
:102100006E6D2A6DD5F854C02B6D00EA8770009073
:1021100009F470496F6D286D01EA09010191DAF83F
:102120005410DAF85490DAF8505008F00F0806EA24
:102130000806029602F0F00203F071536FEA0906F6
:102140001F4000F060700CEA020CCDF80CC0F205E4
:1021500001EA00090CD4E843C00509D400214FF47A
:102160008073CAF85030CBF800102046FFF7B4FF58
:10217000700512D4E84340050FD4206800234FF4C3
:102180008068D0F8DC20D0F8E410C0F85080CBF89C
:1021900000301140204600F03AFBDFF858A20098CA
:1021A00050B12268830F00EA0A001065CBF80030B6
:1021B00020460099FFF725FE019850B12268830F51
:1021C00000EA0A001065CBF800302046019900F0C3
:1021D00020FB029850B12268830F00EA0A001065C4
:1021E000CBF800302046029900F0A8FA039850B1CD
:1021F0002268830F00EA0A001065CBF80030204601
:10220000039900F0A5FA30050CD4E843000509D481
:10221000236800204FF400621A65CBF800002046C6
:1022200000F0F8FAB00512D4E84380050FD4206816
:1022300000234FF40078D0F8D820D0F8E010C0F890
:102240005080CBF800301140204600F0E1FA300316
:102250000CD4E843000309D4236800204FF4002283
:102260001A65CBF80000204600F066FAF0030CD4A3
:10227000E843C00309D4236800204FF480321A6574
:10228000CBF80000204600F0C1FA70030CD4E843FC
:10229000400309D4226800204FF480231365CBF853
:1022A0000000204600F0B1FAB0030FD4E8438003E9
:1022B0000CD4236800204FF400321A65CBF80000DC
:1022C000D4F89C0040F08000C4F89C00B9F1000FE5
:1022D0000BD022684FEA997309EA0A001065CBF81F
:1022E000003049462046FFF728FE5FB12268BB0F49
:1022F00007EA0A001065CBF80030D4F89C00384398
:10230000C4F89C003C492068884268D160688146D6
:102310008068800763D0D9F82060D9F82410D9F8F4
:102320002080D9F82400D9F820C0D9F82470D9F831
:102330002030D9F82450D9F8202003F4FC4306F0CB
:102340000F0AD9F824601D40D9F824B008F03008ED
:102350000CF4C07C02F4F02211EA0A0100EA080839
:1023600007EA0C0706EA0206D9F820A004D0C9F84B
:102370002010204600F046FAB8F1000005D0616850
:1023800008624146204600F03FFA6FEA0B00400623
:102390000ED46FEA0A0040060AD460684021C36B7D
:1023A000C26B01622046190C02F03F0200F02BFACA
:1023B0002FB1606807623946204600F022FA35B135
:1023C00060680562D4F89C002843C4F89C0036B1CC
:1023D00060680662D4F89C003043C4F89C00D4F8CE
:1023E0009C00002802D02046FFF7A6FDBDE8FF9F15
:1023F00010A80040FFFFCF3F00A000402DE9F041B2
:1024000094B08D494C2204466846FEF70EF964B13B
:102410008A4D2068A84202D100F58070606094F86F
:1024200098004FF0000820B108E0012014B0BDE88A
:10243000F081204684F8998000F022F920688169B3
:1024400021F01001816100F0ABFB0327064604E098
:1024500000F0A6FB801B0A2811D8206880690007BD
:10246000F6D42068816941F00101816100F098FB98
:1024700006460DE000F094FB801B0A2808D9D4F82A
:102480009C0040F00100C4F89C0084F89870CCE7F0
:1024900020688069C007EDD02068816941F00201A1
:1024A0008161207C01282068816937D041F040019A
:1024B0008161607C01282068816932D021F48041EB
:1024C0008161A07C0128206881692DD041F4805170
:1024D00081612068A268816921F4407111438161A2
:1024E0002068816921F0A40181612068016921F0DF
:1024F00010010161E068012819D010B302281BD037
:102500002068816941F0800181612068016941F0A2
:1025100010010161E06803280ED012E021F04001B3
:10252000C6E741F48041CBE721F48051D0E7206831
:10253000816941F0040103E02068816941F02001D4
:102540008161207E6FF0FF02D4E90773A68A110231
:10255000400602EB0727A0F10070384327685B1E96
:10256000184301EB06463043F861A068B0F5407FA0
:1025700011D104F12800A68C6FF00F0C89C801EB73
:102580000641401E02EB0322104322680CEB0713A6
:1025900018430843D060206E30B12068626ED0F8D6
:1025A000C0101143C0F8C010D4E917126846D142D8
:1025B00009D02168A36E51F8C82F50F8233022F0BB
:1025C00007021A430A60216C49B12168626C51F814
:1025D000BC3F50F8226023F0070232430A60A16C2E
:1025E00051B12168E36C51F8BC2F50F8233022F030
:1025F000700242EA03120A60216D51B12168626DD6
:1026000051F8BC3F50F8220023F4E06242EA002077
:1026100008602068A84204D16068816821F0030145
:102620008160C4F894800121C4F89C8084F89810DB
:102630002046FEF7F7F9F9E61C88000800A00040E4
:1026400010B500680B49884213D10B48016821F48A
:10265000807101600948032100F0DEF8132000F0CA
:102660002FFB152000F02CFBBDE810403F2000F0B0
:1026700027BB10BD00A00040EC440258000C0258DB
:1026800010B5B4B0044614212EA8FEF708F8B821FE
:102690006846FEF704F825492068884244D10020A6
:1026A0004FF40041CDE900104A0368461B9200F048
:1026B000D7FC08B1FEF793F91D48016841F4807119
:1026C0000160006800F48070339019480C3801688C
:1026D00041F00801016000680923032100F00800AF
:1026E000339000202E9102222EA9CDE92F20CDE992
:1026F0003103104800F040F900220521132000F0BA
:10270000FDFA132000F0EDFA00220521152000F05B
:10271000F5FA152000F0E5FA002205213F2000F02F
:10272000EDFA3F2000F0DDFA34B010BD00A000400B
:10273000EC440258000C025870470000034910B5E1
:10274000884201D104F0A0F810BD0000E04E002046
:10275000704790F89810012907D0D0F89C1041F0EC
:102760000401C0F89C1001207047022180F89810E5
:10277000002201688B6923F001038B61C0F89C2063
:102780001046704710B590F898100022022906D024
:10279000D0F89C1041F00801C0F89C1012E00168CC
:1027A00003238C6944F001048C6101680DE0322A36
:1027B0000AD900BFD0F89C1041F00101C0F89C106C
:1027C00080F89830012010BD521C8C69E407EED0CF
:1027D0008C69002224F010048C61016802E0322A26
:1027E000E8D8521C8C692407F9D48C690023012293
:1027F00044F002048C61C0F8943080F898201846A8
:1028000010BD7047704770477047704770477047FA
:1028100070477047704700002DE9F04F4C4D002283
:102820004FF0010A4FF00F0B8BE000BF0AFA02F9DC
:1028300019EA01037DD022F0030606F1B0469407A1
:10284000D6F808C4270FDFF80C810BFA07FE4045C5
:102850000EEA0C0402D14FF0000C39E0DFF8F8C0AA
:10286000604502D14FF0010C32E0DFF8F0C0604566
:1028700002D14FF0020C2BE0DFF8E4C0604502D13A
:102880004FF0030C24E0DFF8DCC0604502D14FF0CC
:10289000040C1DE0DFF8D0C0604502D14FF0050CFC
:1028A00016E0DFF8C8C0604502D14FF0060C0FE01B
:1028B000DFF8BCC0604502D14FF0070C08E0DFF83C
:1028C000B4C0604502D14FF0090C01E04FF00A0C92
:1028D0000CFA07FCA44513D12C689C432C606F684C
:1028E0004FF0B0449F436F6067689F4367602768FD
:1028F0009F432760D6F8084424EA0E04C6F808442B
:1029000006680323D7084FEA42084FEA427C03FADD
:1029100008F34FEADC6C1E4306600BFA0CF400EB84
:1029200087073E6AA6433E62C4689C43C46044680D
:1029300000E005E024EA0904446084689C43846064
:10294000521C31FA02F37FF471AFBDE8F08F000042
:102950008000005800000258000402580008025885
:10296000000C0258001002580014025800180258B7
:10297000001C0258002402582DE9F84F03247A4D18
:1029800000234FF001094FF0B04B4FF00F0AE4E085
:1029900009FA03F6324078D00F7907F00307012FC8
:1029A00001D0022F1AD187684FEA430ED1F80CC02C
:1029B00004FA0EF827EA08070CFA0EFC4CEA070C9A
:1029C000C0F808C0476891F804C0B743CCF3001CB6
:1029D0000CFA03FC4CEA070CC0F804C00E79F6436D
:1029E000B6070BD0C6684FEA43088F6804FA08FCA4
:1029F00026EA0C0607FA08F73743C7600E7906F097
:102A00000306022E12D1DE080F694FEA437C00EB69
:102A10008606B646366A4FEADC6C0AFA0CF807FA04
:102A20000CF726EA08063743CEF820700F790668BF
:102A30004FEA430807F0030704FA08FC07FA08F70F
:102A400026EA0C06374307604E6816F4403F1CD058
:102A5000464E376847F00207376036689F0706F032
:102A60000206009623F0030606F1B046B6463F0F75
:102A7000D6F80864DFF8F8800AFA07FC404526EA31
:102A80000C0603D14FF0000C3AE065E0DFF8E4C03B
:102A9000604502D14FF0010C32E0DFF8DCC0604548
:102AA00002D14FF0020C2BE0DFF8D0C0604502D11C
:102AB0004FF0030C24E0DFF8C8C0604502D14FF0AE
:102AC000040C1DE0DFF8BCC0604502D14FF0050CDE
:102AD00016E0DFF8B4C0604502D14FF0060C0FE0FD
:102AE000DFF8A8C0604502D14FF0070C08E0DFF81E
:102AF000A0C0604502D14FF0090C01E04FF00A0C74
:102B00000CFA07FC4CEA060CCEF808C44F68DBF858
:102B10000060FF0226EA020600D516435F46CBF8A6
:102B20000060D1F804C0DBF804605FEA8C2C26EA70
:102B3000020600D516437E606E684F6826EA0206DC
:102B4000BF0300D516436E602E684F6826EA020662
:102B5000FF0300D516432E605B1C0A6832FA03F6A9
:102B60007FF416AFBDE8F88F80000058F444025897
:102B7000000002580004025800080258000C0258D5
:102B8000001002580014025800180258001C025885
:102B9000002402580AB1816170470904FBE7000074
:102BA00001488068704700000C00002402488168DA
:102BB00002781144816070470C000024032010B596
:102BC00000F0BCF801F08CF80F4A10491468136843
:102BD000C4F3032203F00F038A5CC95C02F01F02F6
:102BE00001F01F01D0400A4A20FA01F111600949A1
:102BF00008600F2000F010F808B1012010BD00F0AF
:102C00004DF8002010BD00001844025890880008BC
:102C10000C0000200800002010B5102804468AB0DF
:102C20002AD200220146A12000F068F8A12000F07D
:102C300058F8154804601548016841F0807101603A
:102C4000006808A900F080700990684600F0D4FF81
:102C500001F034F80E49400000220E4CB0FBF1F1B7
:102C60000D4840F2E7330460C0E90332491EC0E971
:102C7000011201F0C3FB10B101200AB010BD0648DB
:102C800001F020FCF9E7000010000024EC44025899
:102C900040420F0000E00040804F0020074882B013
:102CA000016841F002010160006800220F2100F07C
:102CB00002000090901E02B000F020B8F4440258C8
:102CC00000280DDB410900F01F028900012001F1FD
:102CD000E0219040C1F88001BFF34F8FBFF36F8FA9
:102CE0007047002809DB410900F01F02890001201C
:102CF00001F1E0219040C1F8000170470E4BF0B4A3
:102D00001B680D46C3F30223C3F10706042E00D946
:102D10000426191D072901D2002300E0DB1E01242F
:102D200004FA06F19C40491E2940641E9940144053
:102D30002143F0BC03F0A1BB0CED00E0064900F01C
:102D4000070210B54FF6FF040868044B204040EA24
:102D500002201843086010BD0CED00E00000FA05E9
:102D6000134970B50A68D243520705D5096801F0C6
:102D70000701814213D118E00A6822F007020243DA
:102D80000A60FFF70DFF0A4D4FF47A760446083DBE
:102D900007E000BFFFF704FF001BB04201D901208C
:102DA00070BD2868C0438004F4D4002070BD0000CA
:102DB0000C48025810B500F04DFF05490968054A56
:102DC000C1F30211515C01F01F01C84010BD0000A9
:102DD0002044025890880008494930B5484C0B1DE2
:102DE0000A68143409681D68246802F00303C5F3F7
:102DF0000012C1F30531C4F3CC04002914FB02F224
:102E000000EE102AF8EE400A75D03F4A9FED3D1AB9
:102E1000B7EE000A6BB1DFED3D1A012B01D0022B9A
:102E200064D002EE101A1168F8EE422A81EEA22A4E
:102E300021E0334C283C23689B0612D5344B246890
:102E400001EE901A1168C4F3C104F8EE612AE34060
:102E500001EE903AC1F30801F8EE611A81EEA22A60
:102E60000BE001EE901ADFED2B2A00BFF8EE611A9D
:102E7000116882EEA12AC1F3080101EE901A1168CF
:102E8000F8EE611A40EE811A71EE800A62EE200AB5
:102E9000C1F3462101EE101AB8EE411A31EE001AC4
:102EA000C0EE811ABCEEE11A80ED001A1168C1F380
:102EB000064101EE101AB8EE411A31EE001AC0EECA
:102EC000811ABCEEE11A80ED011A1168C1F30661A6
:102ED00001EE101AB8EE411A31EE000A80EE801AA7
:102EE000BCEEC10A80ED020A30BD04E001EE901A8A
:102EF000DFED092ABAE70021016041608160F3E754
:102F00002844025800000039384402580024744A0A
:102F10000090D0030024744C001BB74B494930B5D6
:102F2000484C0B1D0A681C3409681D68246802F0AF
:102F30000303C5F30022C1F30551C4F3CC040029F7
:102F400014FB02F200EE102AF8EE400A75D03F4A58
:102F50009FED3D1AB7EE000A6BB1DFED3D1A012B74
:102F600001D0022B64D002EE101A1168F8EE422A4A
:102F700081EEA22A21E0334C283C23689B0612D51F
:102F8000344B246801EE901A1168C4F3C104F8EEC2
:102F9000612AE34001EE903AC1F30801F8EE611AAC
:102FA00081EEA22A0BE001EE901ADFED2B2A00BF82
:102FB000F8EE611A116882EEA12AC1F3080101EE50
:102FC000901A1168F8EE611A40EE811A71EE800ACB
:102FD00062EE200AC1F3462101EE101AB8EE411A42
:102FE00031EE001AC0EE811ABCEEE11A80ED001A33
:102FF0001168C1F3064101EE101AB8EE411A31EE24
:10300000001AC0EE811ABCEEE11A80ED011A1168B7
:10301000C1F3066101EE101AB8EE411A31EE000A52
:1030200080EE801ABCEEC10A80ED020A30BD04E0D9
:1030300001EE901ADFED092ABAE700210160416034
:103040008160F3E7284402580000003940440258E8
:103050000024744A0090D0030024744C001BB74B2A
:103060002DE9FE4F0546DFF800A450F8081B0024A8
:10307000FD4FC943019005F1280026460AF1240AB4
:10308000009008011DD4686E50B1B0F5801F0CD0BF
:10309000B0F5001F0ED0B0F5401F1ED001240FE088
:1030A000386840F40030386017E00198022102F0DF
:1030B000B3F803E00098022102F03EF904000CD0BE
:1030C00026462888C043C00523D4A86D05281ED2F3
:1030D000DFE800F00C11161B1B006A6EDAF8001016
:1030E00021F440111143CAF80010EAE7386840F4AF
:1030F0000030386009E00198002102F08DF803E00B
:103100000098002102F018F90446C4B100E001243F
:1031100026462888DFF85083C04308F12C08400574
:103120002FD4D5F8A400B0F5C00F28D010DCB8B16A
:10313000B0F5001F19D0B0F5800F0FD11AE0AA6DBD
:10314000DAF8001021F007011143CAF80010E0E797
:10315000B0F5000F13D0B0F5200F10D001240FE010
:10316000386840F40030386009E00198002102F02E
:1031700053F803E00098002102F0DEF8044694B111
:1031800026462888C043000530D4D5F8A800B0F101
:10319000407F29D011DCC0B1B0F1807F1AD0B0F1EE
:1031A000007F10D11BE0D5F8A420D8F8001021F43E
:1031B00060011143C8F80010E3E7B0F1806F13D04D
:1031C000B0F1A06F10D001240FE0386840F4003057
:1031D000386009E00198002102F01EF803E0009831
:1031E000002102F0A9F8044694B126462868DFF8C9
:1031F00078B2C0430BF1200B80011FD4E86CD8B12A
:1032000010280FD0202812D0302815D0012414E027
:10321000D5F8A820D8F8001021F0E0611143C8F8D3
:103220000010E3E7386840F40030386004E00198AB
:10323000022101F0F1FF044674B126462888C043FC
:10324000C0042BD4E86DB0F5005F20D00DDCA0B138
:10325000B0F5805F0FD115E0EA6CDBF8001021F0CB
:1032600030011143CBF80010E8E7B0F5405F13D010
:10327000B0F5804F10D001240FE0386840F40030E2
:10328000386009E00198002101F0C6FF03E00098D2
:10329000002102F051F804468CB126462888C0432C
:1032A000800429D4286EB0F5403F23D010DC08B349
:1032B000B0F5803F14D0B0F5003F0FD115E0EA6DB6
:1032C000DAF8001021F4E0411143CAF80010E5E7F4
:1032D000B0F5802F0ED0B0F5A02F0BD001240AE05E
:1032E0000198012101F098FF03E00098012102F00C
:1032F00023F8044694B126462888C04340042AD4C3
:10330000D5F8AC00B0F1405F23D010DC08B3B0F1C9
:10331000805F14D0B0F1005F0FD115E02A6EDAF8AB
:10332000001021F4E0211143CAF80010E4E7B0F1E5
:10333000804F0ED0B0F1A04F0BD001240AE00198CD
:10334000012101F069FF03E00098012101F0F4FF81
:10335000044674B126462888C04300041FD4E86E92
:10336000D8B1B0F1805F0ED0B0F1005F10D0012471
:1033700014E0D5F8AC20D8F8001021F0E04111435A
:10338000C8F80010E7E7386840F40030386004E01F
:103390000198012101F040FF044674B126462868D7
:1033A000C043C0011ED4A86CD0B101280ED00228A1
:1033B00011D0032814D0012413E0EA6EDAF80010CB
:1033C00021F040511143CAF80010E8E7386840F492
:1033D0000030386004E00198022101F01DFF04462E
:1033E0006CB126462868C043400255D41F48016886
:1033F00041F480710160FFF7D3FB81460EE0AA6CB7
:10340000DBF8001021F003011143CBF80010E9E7CD
:10341000FFF7C6FBA0EB090064283BD813480068FF
:10342000C005F5D5BCBBDFF84090B5F8B01009F188
:103430004409D9F8000001F4407100F4407088425A
:1034400011D0D9F80010D9F8002021F4407142F4CD
:103450008032C9F80020D9F8002022F48032C9F85F
:103460000020C9F8001003E02C440258004802581C
:10347000D5F8B000B0F5807F19D1FFF791FB02902D
:1034800011E000BFFFF78CFB0299411A41F288302E
:10349000814208D9032426462878DFF81494C043D3
:1034A000C00721D03CE0D9F800008007EAD5D5F864
:1034B000B010C1F301200328FE480DD0016821F4AB
:1034C0007C510160B5F8B020D9F80010C2F30B02AE
:1034D0001143C9F80010DFE7F74A036802EA111246
:1034E00023F47C511143ECE7A86F182816D005DCB3
:1034F000A0B1082808D0102804D10AE020280DD057
:1035000028280BD001240AE00198012101F084FE53
:1035100003E00098012101F00FFF044664B1264644
:103520002878C04380071ED4686F062819D2DFE8C8
:1035300000F0160C11161616AA6FD9F8001021F01B
:1035400038011143C9F80010EAE70198012101F0A0
:1035500063FE03E00098012101F0EEFE04467CB119
:1035600000E0012426462878C04340071FD4D5F840
:103570009000062819D2DFE800F0160C1116161676
:103580006A6FD9F8001021F007011143C9F8001043
:10359000E9E70198012101F03FFE03E000980121D5
:1035A00001F0CAFE0446A4B100E0012426462878B2
:1035B000C04380062BD4D5F88C00B0F1405F24D0F6
:1035C00011DC10B3B0F1805F15D0B0F1005F10D105
:1035D00016E0D5F89020D8F8001021F0070111432B
:1035E000C8F80010E3E7B0F1804F0ED0B0F1A04F63
:1035F0000BD001240AE00198002101F00DFE03E048
:103600000098022101F098FE044694B126462878DD
:10361000C04340062BD4D5F89800B0F5406F24D0B5
:1036200011DC10B3B0F5806F15D0B0F5006F10D17C
:1036300016E0D5F88C20D9F8001021F0E0411143B4
:10364000C9F80010E3E7B0F5805F0ED0B0F5A05FD9
:103650000BD001240AE00198002101F0DDFD03E018
:103660000098022101F068FE044694B126462878AD
:10367000C04300062BD4D5F89C00B0F5C04F24D031
:1036800011DC10B3B0F5005F15D0B0F5804F10D14C
:1036900016E0D5F89820D8F8001021F4E051114335
:1036A000C8F80010E3E7B0F5004F0ED0B0F5204F9A
:1036B0000BD001240AE00198002101F0ADFD03E0E8
:1036C0000098022101F038FE044654B126462878BD
:1036D000C04300071ED4D5F88000B0F5805F0AD043
:1036E0000FE0D5F89C20D8F8001021F46041114378
:1036F000C8F80010EBE70098022101F01DFE00B1B0
:103700000126D5F88020D9F8001021F4405111434A
:10371000C9F800102878C043C00613D4D5F8940027
:10372000B0F5807F05D10098022101F005FE00B1BF
:103730000126D5F89420D8F8001021F440711143E7
:10374000C8F800102868C043000316D4D5F8A000BC
:1037500038B1B0F5803F09D0B0F5003F0BD001245F
:103760000AE00198002101F057FD03E000980221D2
:1037700001F0E2FD04468CB126462868C0434003B0
:1037800022D4D5F88400B0F5801F11D0B0F5001F09
:1037900013D0B0F5401F15D0012414E0D5F8A020B7
:1037A000D8F8001021F440311143C8F80010E4E7C4
:1037B000386840F40030386004E00098012101F0DE
:1037C000BBFD04465CB126462868C043C0031CD438
:1037D000286D70B1B0F5803F10D0012414E0D5F809
:1037E0008420D9F8001021F440111143C9F80010C9
:1037F000EAE7386840F40030386004E001980221BC
:1038000001F00AFD0446DCB126462868C04380006A
:1038100005D40098022101F08FFD00B1012628682F
:10382000C04380031BD4E86FB8B1B0F5807F10D0DF
:10383000B0F5007F11D0B0F5407F0ED001240DE02F
:103840002A6DDBF8001021F480311143CBF8001011
:10385000DBE7386840F4003038607CB326462868DF
:10386000C043C00207D42A6FDAF8001021F00041EB
:103870001143CAF800102868C043800207D4AA6E1A
:10388000DAF8001021F080711143CAF8001028689E
:10389000C043400009D40748016821F40041016099
:1038A0000168D5F8B420114301602868C04306E0E0
:1038B0005444025810440258CFFFFF001DE007D4C3
:1038C0006A6DDBF8001021F040511143CBF8001075
:1038D0002868C043000208D4D5F88820D9F8001021
:1038E00021F440011143C9F8001028790024C04395
:1038F00000F00100204309D00EE0EA6FD9F8001073
:1039000021F440711143C9F80010A8E70198002183
:1039100001F082FC00B106462879C04300F00200A5
:10392000204305D10198012101F076FC00B1064643
:103930002879C04300F00400204305D101980221FA
:1039400001F06AFC00B106462879C04300F0080087
:10395000204305D10098002101F0EEFC00B106469D
:103960002879C04300F01000204305D100980121C0
:1039700001F0E2FC00B106462879C04300F02000C7
:10398000044304D10098022101F0D6FC00B916B11D
:103990000120BDE8FE8F0020FBE700002DE9F05F6D
:1039A00004000F467ED0DFF83882D8F8000000F01F
:1039B0000F00B8420CD2D8F8001021F00F013943A3
:1039C000C8F80010D8F8000000F00F00B84269D124
:1039D0002078844D40070AD52069296801F07001DC
:1039E000884204D9296821F07001014329602078B8
:1039F0007C4E361D00070AD56069316801F0700100
:103A0000884204D9316821F0700101433160207887
:103A1000C0060AD5A069316801F4E061884204D982
:103A2000316821F4E061014331602078DFF8B4B1FE
:103A300080060BF1080B0CD5E1695846DBF8002035
:103A400002F07002914204D9026822F070020A4327
:103A50000260207880070AD5E068296801F00F012C
:103A6000884204D9296821F00F0101432960207898
:103A7000C0073ED05B49A2682868183920F47060FE
:103A8000104328606068022818D0032819D00968FC
:103A9000012819D0490700294ADADFF848A1AAF11C
:103AA000080A00E044E0DAF8002022F007020243AE
:103AB000CAF80020FFF774F8814612E0096889030C
:103AC000E9E709688901E6E7C905E4E7FFF768F86F
:103AD000A0EB090141F28830814202D90320BDE800
:103AE000F09F6168DAF8000000F03800B0EBC10F19
:103AF000ECD1207880070AD5E068296801F00F0131
:103B0000884204D2296821F00F0101432960D8F8C6
:103B10000010404601F00F01B9420BD9016821F0B5
:103B20000F0139430160006800F00F00B84201D076
:103B30000120D4E7207840070AD52069296801F0E0
:103B40007001884204D2296821F070010143296084
:103B5000207800070AD56069316801F07001884259
:103B600004D2316821F07001014331602078C00631
:103B70000AD5A069316801F4E061884204D2316855
:103B800021F4E06101433160207880060CD5E169C1
:103B90005846DBF8002002F07002914204D202681D
:103BA00022F070020A43026000F09AF80E492A6877
:103BB0002B68C2F3032203F00F038A5CC95C02F096
:103BC0001F0201F01F01D040084A20FA01F11160E4
:103BD0000749086007480068BDE8F05FFFF71CB8B8
:103BE0000020005218440258908800080C00002061
:103BF000080000201000002470B5144C3F22026021
:103C0000124A24680832131D114D04F00704446061
:103C100016681C1D06F470668660166806F00F06AE
:103C2000C660126802F0700202611A6802F0700247
:103C300042611A6802F4E0628261226802F0700256
:103C4000C261286800F00F00086070BD104402587F
:103C50000020005230B500F043F80B4A0B490C4BE2
:103C600015681468C5F3032204F00F048A5C095D2B
:103C700002F01F0201F01F01D040064A20FA01F1B4
:103C800019601060084630BD18440258908800083A
:103C90000C0000200800002000B5FFF7DBFF0549FD
:103CA0000968054AC1F30211515C01F01F01C840C7
:103CB00000BD00001C4402589088000800B5FFF7C2
:103CC000C9FF05490968054AC1F30221515C01F0A9
:103CD0001F01C84000BD00001C4402589088000825
:103CE000454970B545480968434B103B11F038020F
:103CF00008D00111082A03D0102A0BD0182A0BD0A3
:103D0000084670BD19688906FBD51968C1F3C10161
:103D1000C84070BD3A4870BD3749374D18310C1D49
:103D200024350A68096826682D6802F0030406F045
:103D30000102C1F30511C5F3CC0515FB02F200EE3B
:103D4000102AB8EE400AE9B32F4ADFED2E0AB7EE8B
:103D5000001A6CB1DFED2D1A012C01D0022C43D0DA
:103D600002EE101A1068F8EE422A81EEA22A1EE036
:103D70001C68A40611D51B6801EE901A1168C3F3E4
:103D8000C103F8EE612AD84001EE900AC1F30800A1
:103D9000F8EE611A81EEA22A0BE001EE901ADFED37
:103DA0001C2A00BFF8EE611A106882EEA12AC0F347
:103DB000080001EE900AF8EE611A40EE201A31EE8A
:103DC000810A00E015E022EE000A1068C0F34620E8
:103DD000401C00EE900AF8EE600A80EE201ABCEE5D
:103DE000C10A10EE100A70BD01EE901ADFED092A2B
:103DF000D8E7002070BD0000104402580090D003A6
:103E000000366E0100000039304402580024744A24
:103E10000024744C001BB74B2DE9F05F04007DD0EB
:103E2000FF4F2078FE4D1837DFF8F483103DC007B0
:103E300048D0D8F80000396800F03800102815D0B4
:103E4000182803D101F0030002280FD06068B0F5F4
:103E5000803F12D010B1B0F5A02F18D0286820F400
:103E600080302860286820F4802009E028688003DA
:103E700028D560680028D2D024E0286840F480303B
:103E80002860606888B1FEF78BFE064609E0286866
:103E900040F480202860F0E7FEF782FE801B642853
:103EA0007ED828688003F7D50CE0FEF779FE064639
:103EB00005E000BFFEF774FE801B6428F0D8286878
:103EC0008003F7D42078800756D5D8F80000DFF8B3
:103ED0005093396810F03800A9F10C090ED0182859
:103EE00001D188070AD0E068A8B3296821F0190138
:103EF00001432960FEF754FE064628E02868400783
:103F000002D5E06800288AD0E168286820F019000E
:103F100008432860FEF744FE064606E0D2E000BFF4
:103F2000FEF73EFE801B0228BAD828684007F7D566
:103F3000217CD9F8002022F0FE4242EA0161C9F852
:103F4000001019E0FEF72CFE801B0228A8D8286874
:103F50004007F7D5ECE7FFE7286820F0010028606C
:103F6000FEF71EFE064604E0FEF71AFE801B02283E
:103F700096D828684007F7D42078C00646D5D8F8E8
:103F80000000DFF89C92396800F03800A9F10409BC
:103F9000082812D0182805D101F00300012800E0FC
:103FA000CEE00AD0E0690028286820D040F08000E8
:103FB0002860FEF7F5FD064615E02868C00502D525
:103FC000E06980287ED194F82010D9F8002022F0F2
:103FD0007C5242EA0161C9F8001017E0FEF7E0FDEB
:103FE000801B0228A0D82868C005F7D5EBE720F091
:103FF00080002860FEF7D4FD064604E0FEF7D0FD01
:10400000801B022890D82868C005F7D420780007C4
:1040100029D583486169643000298146016811D03F
:1040200041F001010160FEF7BBFD064605E000BF5F
:10403000FEF7B6FD801B022888D8D9F8000080075B
:10404000F6D510E021F001010160FEF7A9FD06465A
:1040500005E000BFFEF7A4FD801B022870D8D9F848
:1040600000008007F6D42078800623D5A0690028B8
:10407000286810D040F480502860FEF791FD064675
:1040800005E000BFFEF78CFD801B022858D8286889
:104090008004F7D50EE020F480502860FEF780FD04
:1040A000064604E0FEF77CFD801B022848D82868FD
:1040B0008004F7D42078400751D5DFF86891D9F80B
:1040C000001000E015E141F48071C9F80010FEF71E
:1040D00067FD064605E000BFFEF762FD801B642811
:1040E0002ED8D9F80000C005F6D54D4EA068603630
:1040F00001280AD008B1052813D0306820F001004B
:104100003060306820F0040002E0306840F00100C8
:104110003060A06841F2883A98B1FEF741FD8146CF
:104120000AE0306840F004003060EEE7FEF738FD4A
:10413000A0EB0901514503D830688007F6D50EE0A1
:1041400072E0FEF72DFD814606E000BFFEF728FD78
:10415000A0EB0901514567D830688007F6D4606A42
:1041600000287CD0DFF8B8A0D8F800100AF1200AA7
:104170004FF6F87B0AF10408C1F3C2010329AAF142
:1041800004096DD00228286820F08070286003D0D0
:10419000FEF706FD044681E0FEF702FD064604E058
:1041A000FEF7FEFC801B022875D828688001F7D432
:1041B000E26A40F2F331386854F8283F884340EA15
:1041C000021018433860217B4FF4FE0C22894FF017
:1041D000FE47208A4902267D521E401EA1F500712D
:1041E00089B2C2F308021143761E0CEA0040014373
:1041F000484607EA06621143CAF80010D9F80010D1
:1042000021F00101C9F80010D8F80030266A23EA2D
:104210000B0343EAC601C8F80010D9F8001004E007
:10422000104402580048025835E0A26921F00C0100
:104230001143C9F800100168E26921F0020111433D
:104240000160016841F480310160016841F400318E
:104250000160016841F480210160016801E06CE0C7
:1042600020E041F001010160286840F08070286082
:10427000FEF796FC044604E0FEF792FC001B0228C1
:1042800009D828688001F7D557E000BFFEF788FC01
:10429000001B022802D90320BDE8F09F2868800196
:1042A000F4D44AE039680128DAF8000021D0A26A83
:1042B00001F0030393421CD1E26AC1F305118A4263
:1042C00017D1216BC0F30802491E8A4211D1616BDC
:1042D000C0F34622491E91420BD1A16BC0F30642A6
:1042E000491E914205D1E16BC0F30660491E81422F
:1042F00001D00120D0E7A16C4646D8F80000C0F3F9
:10430000CC00814219D0D9F800004D4620F00100C0
:10431000C9F80000FEF744FC4FEA0007FEF740FC36
:10432000B842FBD0A26C306820EA0B0040EAC20021
:104330003060286840F0010028600020ACE770473A
:1043400070477047F0B590F83C20012A41D0224ECA
:10435000012480F83C40022280F83D2002681F4D75
:104360005368B242D2F808C001D0AA4203D14F68C4
:1043700023F470033B430F6823F070031F4357601F
:104380000268B24219D0B2F1804F16D0144B9A4253
:1043900013D0144B9A4210D0134B9A420DD0AA421C
:1043A0000BD0124B9A4208D0114B9A4205D0114BB8
:1043B0009A4202D0104B9A4204D189682CF08003B3
:1043C00019439160002180F83D4080F83C10084678
:1043D000F0BD0220F0BD00000000014000040140DB
:1043E0000004004000080040000C0040001800409D
:1043F0000040014000E0004000E4004010B504002F
:1044000003D094F83D0010B107E0012010BD00205A
:1044100084F83C00204600F023F8022084F83D0098
:104420002068211D01F044F9012084F8480084F837
:104430003E0084F83F0084F8400084F8410084F88E
:10444000420084F8430084F8440084F8450084F86E
:10445000460084F8470084F83D00002010BD0000AD
:1044600008B5154A0168154891420ED1016841F01E
:104470000201016000680022052100F002000090A6
:104480001D20FEF73BFC1D2010E00D4A914211D18A
:10449000016841F00401016000680022052100F07C
:1044A000040000901E20FEF729FC1E20BDE80840F5
:1044B000FEF717BC08BD000000040040E8440258A5
:1044C0000008004090F83D10012901D001207047FC
:1044D0001A4A022180F83D100168CB6843F00103BD
:1044E000CB60006890421AD0B0F1804F17D01449C9
:1044F000884214D01349884211D0134988420ED003
:10450000124988420BD01249884208D0114988428A
:1045100005D01149884202D01049884207D18168EC
:104520000F4A1140062906D0B1F5803F03D001683B
:1045300041F00101016000207047000000000140CF
:104540000004004000080040000C0040000401404E
:10455000001800400040014000E0004000E400403E
:104560000700010070B5044690F83C0000250128C2
:1045700014D03A4B012684F83C60022084F83D00B8
:1045800022689068184020F47F4090600868702886
:104590002FD010DC10F00F0F03D022E04FF00200FC
:1045A00070BD4FEA2012072A1BD2DFE802F05353F6
:1045B00053534B394100B0F1101F4BD009DCB0F51B
:1045C000805F0FD0B0F5005F1ED0B0F5801F08D11E
:1045D00040E0A0F5801120393CD010293AD02029A4
:1045E00038D0012584F83D60002084F83C0028463E
:1045F00070BD4A682068D1E9021301F0C9F820684B
:10460000816841F0770109E04A682068D1E9021326
:1046100001F0BEF82068816841F480418160E1E7E3
:10462000CA684968206801F0C7F82068502106E090
:10463000CA684968206801F0D0F82068602101F05C
:10464000B1F8CFE7CA684968206801F0B5F820687A
:104650004021F4E7226801461046F0E788FFCEFFCC
:1046600070472DE9F041044600680027C6680569D7
:10467000A90713D5B10711D5FA1E026101212177CF
:10468000206880698007204602D0FFF7E9FF04E038
:1046900000F08BF8204600F089F82777680716D5D8
:1046A000700714D5226802206FF004011161207791
:1046B0002068806910F4407F204602D0FFF7D0FFC9
:1046C00004E000F072F8204600F070F82777280721
:1046D00015D5300713D5226804206FF00801116149
:1046E00020772068C0698007204602D0FFF7B8FF16
:1046F00004E000F05AF8204600F058F82777E80662
:1047000016D5F00614D5226808206FF0100111614B
:1047100020772068C06910F4407F204602D0FFF760
:104720009FFF04E000F041F8204600F03FF82777B3
:10473000E80708D0F00706D021686FF00100086193
:10474000204600F035F8280601D4A80408D5300624
:1047500006D521686FF4025008612046FFF7F0FD8E
:10476000E80508D5300606D521686FF48070086129
:104770002046FFF7E4FD680608D5700606D52168D7
:104780006FF040000861204600F04AF8A8060AD5FC
:10479000B00608D521686FF0200008612046BDE80A
:1047A000F041FFF7CEBDBDE8F081704770470000D3
:1047B00010B5154904460068884201D1FEF7F6F9A4
:1047C0001249206888421DD1114802F0B7FE104CF2
:1047D00094F8580018B90F48214601F035FF0E48EB
:1047E000DFED0E0A0A4990ED010A20EE200A80ED65
:1047F000000A90ED000A074884ED110ABDE8104058
:1048000001F022BF10BD000000E0004000040040A5
:104810001C6E0024E04E0020000000205077D63DA2
:10482000704730B590F88410012918D0012280F823
:1048300084202421C0F888100022202401680B68FD
:104840000D6823F0005325F001050D6042660168F4
:104850000B60C0F8884080F88420104630BD0220EC
:1048600030BD7047704770B5044690F88400012849
:104870001DD0012284F884202420C4F888002068F8
:104880000568026822F0010202602068826822F056
:1048900060620A438260204600F0B2FF2268202155
:1048A00000201560C4F8881084F8840070BD0220D0
:1048B00070BD70B5044690F8840001281DD0012217
:1048C00084F884202420C4F88800206805680268E1
:1048D00022F0010202602068826822F060420A43EE
:1048E0008260204600F08CFF2268202100201560A5
:1048F000C4F8881084F8840070BD022070BD704731
:10490000704770472DE9F04107680025044640F6DE
:104910000F030226F8693968BA6818420AD183067B
:104920007ED501F0200302F0805C53EA0C0377D0BF
:10493000616F7EE1D44BDFF854C3134001EA0C0CE5
:1049400053EA0C0C6CD05FEAC07C0CD05FEAC15C0F
:1049500009D54FF0010CC7F820C0D4F8907047F08B
:104960000107C4F89070870709D5D70707D02768D3
:104970003E62D4F8906046F00406C4F890604607A2
:104980000AD5D60708D0276804263E62D4F890607E
:1049900046F00206C4F8906006070CD501F0200628
:1049A0001E4308D0266808233362D4F8903043F0C1
:1049B0000803C4F8903003050BD54B0109D52668D0
:1049C0004FF400633362D4F8903043F02003C4F80E
:1049D0009030D4F89030002B3DD0800609D501F0FE
:1049E000200002F08051084303D0616F09B12046D6
:1049F00088472168D4F890008968490602D410F0ED
:104A0000280F2AD0204600F0DFFF2068806840068B
:104A10001ED52068083050E8001F21F0400100E05A
:104A200021E040E80012002AF3D1D4F8800078B1E8
:104A300097490165D4F88000FCF7C6FA00280AD02F
:104A4000D4F88000016D00E02046BDE8F041084741
:104A50002046FFF756FFBDE8F0812046FFF751FFE3
:104A6000C4F89050F7E7D4F86CC02023BCF1010FD4
:104A70007ED15FEAC06C7BD55FEAC16C78D510202F
:104A8000386220688068400673D5D4F88020814958
:104A90001068884234D07F491831884230D07D492F
:104AA000303188422CD07B494831884228D079491E
:104AB0006031884224D077497831884220D07549C6
:104AC000903188421CD07349A831884218D072496D
:104AD000884215D070491831884211D06E49303162
:104AE00088420DD06C494831884209D06A4960310A
:104AF000884205D068497831884201D066499031B2
:104B000040684FF480770004000C40D0B4F85C108B
:104B100081423CD9A4F85E00D069B8422FD0216808
:104B200051E8000F20F4807041E80002002AF6D11D
:104B30002068083050E8001F21F0010140E8001211
:104B4000002AF5D12068083050E8001F21F040010C
:104B500040E80012002AF5D1C4F88C30E5662068E0
:104B600050E8001F21F0100140E80012002A01E087
:104B70004AE019E0F3D1D4F88000FCF775F8266715
:104B8000B4F85C00B4F85E10401A81B208E0B4F8E2
:104B90005C1081427FF466AFD069B842FAD12667D3
:104BA0002046FFF75EFE56E7B4F85C00B4F85E10EE
:104BB000B4F85E20401A81B2002AF4D00029F2D065
:104BC000226852E8000F20F4907042E80007002F9E
:104BD000F6D1324F206800F1080050E8002F02EAB9
:104BE000070240E8002CBCF1000FF3D1C4F88C3070
:104BF000E5666567226852E8000F20F0100042E881
:104C00000003002BF6D1CAE7C60209D5560207D524
:104C10004FF4801038622046BDE8F041FFF770BEC7
:104C200006060AD501F0800602F40002164304D0FD
:104C3000A16F00297FF408AF0DE7420611D54A069F
:104C40000FD52046016851E8002F22F0400241E8CC
:104C50000024002CF6D1C0F88830856700F088F970
:104C6000F9E6020206D54A0004D52046BDE8F04127
:104C7000FFF745BEC00196D5002994DA2046BDE86D
:104C8000F041FFF7EFBD000001000010200100041B
:104C9000B75900081000024010040240FEFFFFEF69
:104CA00010B5040003D0D4F8880010B107E001204B
:104CB00010BD002084F88400204600F027F824204E
:104CC000C4F888002068016821F001010160A06A31
:104CD00010B1204600F0B6FD204601F007F901288A
:104CE000E6D02068416821F49041416020688168E5
:104CF00021F02A0181602068016841F00101016012
:104D00002046BDE8104000F001BE00002DE9F04350
:104D1000B5B0074614212EA8FBF7C1FCB8216846A0
:104D2000FBF7BDFC35493868884263D100211E91EC
:104D300001200C46CDE900016846FEF791F908B163
:104D4000FBF74DFE2E48016841F01001016000683C
:104D500000F0100033902A481038016841F001013A
:104D6000016000682EAB022100F0010033904FF487
:104D7000C060072283E8130022482EA9CDE9314202
:104D8000FDF7FAFD204E4FF48068204A29234FF4A6
:104D90004039304632609215C6E90134C6E903480D
:104DA0007461C6E90642C6E90894FCF7C3FD08B180
:104DB000FBF715FE144D2A22144940237835C7F815
:104DC00080601831B763284685E81E016C61AC61CC
:104DD000C5E907496C62FCF7ADFD08B1FBF7FFFDC3
:104DE000FD6700220521AF632520FDF787FF252001
:104DF000FDF777FF35B0BDE8F083000000100140FB
:104E0000F044025800000258AC3000241000024068
:104E100030B4D0F88C30202B02D0022030BC704748
:104E2000A9B1A2B10B4D00240368C466AB420BD0FC
:104E30005B681B0208D5046854E8003F43F08063B8
:104E400044E80035002DF6D130BC01F03DBA012018
:104E5000E4E70000000C005810B5006814498842CF
:104E600025D11448002142883F2A13D2421C124BFC
:104E700012780D2A06D00A2A04D041884C1C44809E
:104E80005A540CE0428852B14488012219550270EC
:104E9000418004E0418040210748FBF700FC0549C0
:104EA0000122BDE810400548491CFFF7B1BF10BD05
:104EB00000100140080000249C3100241830002418
:104EC0002DE9F8430446D0F88800984616460D466A
:104ED000202802D00220BDE8F883A5B19EB10021B0
:104EE000C4F890102120C4F888001834FDF758FE4B
:104EF000814654F8100CA687E6872027183CB0F5A9
:104F0000805F02D003E00120E5E7206910B12E4662
:104F1000002510E000260EE08021204601F05CFA1A
:104F2000C0B9DEB116F8010B21688862B4F85600EA
:104F3000401EA4F85600B4F856004B464FF000024D
:104F4000CDF800800028E7D14FF04001204601F065
:104F500043FA48B1C4F888700320BCE735F8020B67
:104F60002168C0F30800E0E7C4F888700020B2E7C9
:104F70007047FEE70D4808B5016841F00101016086
:104F800000680022052100F0010000900B20FDF7D1
:104F9000B5FE0B20FDF7A5FE002205210C20FDF734
:104FA000ADFEBDE808400C20FDF79BBED84402587A
:104FB0001D4800232DE9F041DFF868C04FF4407729
:104FC000C0F800C00124C0E9027300F114080474A1
:104FD000437414264FF03B0C847488E8501000F1A1
:104FE0002408066202250D27042188E8B0000A2261
:104FF0000563C0E90D31C0E90F12C0E91112C0E923
:105000001315C0E91512C2650266C0E91931FDF732
:10501000F5F9002803D0BDE8F041FBF7E0BCBDE89E
:10502000F081000000A00040E04E0020074A00216F
:10503000074810B501F08EFD064C0021034A2432CA
:105040002060054801F086FD606010BDBC87000847
:105050005954000800000024F954000830B587B006
:1050600014216846FBF71BFB1A48016841F0040154
:105070000160016801F004010591016841F08001BF
:105080000160016801F080010591016841F00101B2
:105090000160016801F001010591016841F008011A
:1050A000016000684FF480440B4D002200F00800BE
:1050B000214605902846FDF76DFD00210094012052
:1050C000CDE90101284603916946FDF755FC07B07B
:1050D00030BD0000E04402580008025810B588B006
:1050E000174800241549EF2240F2E7330094019459
:1050F0000294039404940594069480E81600C0E991
:1051000003348461FFF77AF908B1FBF768FC4FF4C8
:10511000805000900A486946FFF724FA08B1FBF76F
:105120005EFC074804A904940694FFF70BF90028D5
:1051300001D0FBF754FC08B010BD00000004004093
:10514000802F002410B588B0174800241549EF229D
:1051500040F2E7330094019402940394049405947C
:10516000069480E81600C0E903348461FFF746F92D
:1051700008B1FBF734FC4FF4805000900A486946B0
:10518000FFF7F0F908B1FBF72AFC074804A90494DB
:105190000694FFF7D7F8002801D0FBF720FC08B0F1
:1051A00010BD000000080040CC2F0024184800214A
:1051B00010B5164C0C224FF461230460C0E9013194
:1051C000C160C0E904128161C16101624162816212
:1051D000FFF766FD08B1FBF702FC0D480021FFF761
:1051E00068FB08B1FBF7FBFB09480021FFF73BFB1D
:1051F00008B1FBF7F4FB0648FFF713FB002803D0C8
:10520000BDE81040FBF7EBBB10BD000000100140F3
:1052100018300024FEE7FEE72DE9F047454D04462F
:1052200089464FF0000A2868C04380070AD0414EE3
:10523000283E306820F080603060FDF7B1FC074602
:10524000B04608E00120BDE8F08700BFFDF7A8FCEC
:10525000C01B022867D8D8F800000001F6D42068E7
:1052600029684FF4FE0721F47C313E0241EA003008
:105270002860207AA389B4F804C040022D4D2D493E
:105280005B1E227CACF1010C1035091DA0F50070ED
:1052900080B2521ECCF3080C07EA034340EA0C002C
:1052A000184306EA0262104328600868626920F029
:1052B000C000104308600A68A06922F0200202437F
:1052C0000A60281D0A6822F010020A6002684FF680
:1052D000F873E4699A4342EAC40202600868B9F1CB
:1052E000000F40F010020A6011D00868B9F1010FF8
:1052F00011D040F400100860D8F80000444640F097
:105300008060C8F80000FDF74BFC05460DE008681A
:1053100040F40020EFE740F48010ECE7FDF740FC9C
:10532000401B022801D903208DE720680001F5D534
:10533000504688E7284402582DE9F047454D044679
:1053400089464FF0000A2868C04380070AD0414EC2
:10535000283E306820F080503060FDF721FC074681
:10536000B04608E00120BDE8F08700BFFDF718FC5B
:10537000C01B022867D8D8F800008000F6D4208827
:1053800029684FF4FE0721F07C713E0241EA00508B
:105390002860207AA389B4F804C040022D4D2D491D
:1053A0005B1E227CACF1010C1835091DA0F50070C4
:1053B00080B2521ECCF3080C07EA034340EA0C000B
:1053C000184306EA0262104328600868626920F404
:1053D0004060104308600A68A06922F4007202432A
:1053E0000A60281D0A6822F480720A6002684FF67B
:1053F000F873E4699A4342EAC40202600868B9F1AA
:10540000000F40F480720A6011D00868B9F1010FF2
:1054100011D040F080700860D8F80000444640F099
:105420008050C8F80000FDF7BBFB05460DE008689A
:1054300040F48000EFE740F40000ECE7FDF7B0FB3C
:10544000401B022801D903208DE720688000F5D594
:10545000504688E7284402581CB50122224891038F
:10546000FDF798FB4FF47A752846FCF741FC1F487E
:105470000422002101F024F801F010F801F098F95D
:105480001B4C032084F83C006420FCF731FC002016
:10549000009001900023208803220A2102F05CFC86
:1054A0006420FCF725FC2088232102F0EFF80F4848
:1054B000214601F0F6F86420FCF71AFC20880A2146
:1054C00002F0EEF96420FCF713FC0848214601F0D5
:1054D0000BF92846FCF70CFC0648FEF7F3FF012009
:1054E00001F0FCFAFBE7000000080258E04E002043
:1054F0001C6E0024802F0024012001F0EFFAFBE74E
:105500004FF0E02010B5006902F09EFF012803D0A3
:10551000BDE8104002F0C2BC10BD000070B59CB0E8
:105520004C216846FBF7BBF8202113A8FBF7B7F81E
:105530000220FDF715FC1E48016821F4404101607E
:105540000168002401F440411B9101688904FCD5E5
:1055500002200A9028230990C20301210D910625FB
:10556000CDE90012CDE90B030C261294CDE90E50C3
:10557000CDE910646846FEF74FFC08B172B6FEE74D
:1055800040201A9008230501CDE9163013ABCDE970
:1055900018053F21032283E8160013A81146FEF7E1
:1055A000FDF9002801D072B6FEE71CB070BD000006
:1055B000184802582D48F0B52D4A016841F4700191
:1055C0000160106800F00F00072804D2106820F076
:1055D0000F00C01D106027490020264C10340B68B6
:1055E000254D43F001030B6020600B682B400B60DE
:1055F000136803F00F03072B04D9136823F00F037C
:10560000DB1D13601B4C1D4A18341D4B261D371D16
:105610002060184C1B4D28343060261D3860371D23
:1056200023603B1D35601C1D3A60251D2E1D186032
:10563000331D22602860326018600B680D4A0D4CE3
:1056400023F48023D4320B60603420601068C004DF
:105650000BD4136843F2D2000B4943F48053136018
:105660000860106820F480501060F0BD88ED00E004
:1056700000200052004402587FEDF6EA800201014A
:10568000000202020000FF01004000520148FEF744
:10569000E8BF0000804F00200148FEF7E2BF000095
:1056A000802F00240148FEF7DCBF0000CC2F00242F
:1056B0002DE9F0472C4B4FF0804A2C4D0268984260
:1056C0002B4E2C4F2C4C09D0504507D0A84205D06A
:1056D000B04203D0B84201D0A04205D1D1F804C0F5
:1056E00022F070024CEA0202DFF890C0DFF89080EE
:1056F0009842DFF8909015D0504513D0A84211D0B1
:10570000B0420FD0B8420DD0A0420BD0604509D0B6
:10571000404507D0484505D01B4DA84202D01B4D3F
:10572000A84203D1CD6822F440722A438E684D69A5
:1057300022F08002C6620E682A439842866207D031
:10574000A04205D0604503D0404501D0484501D175
:10575000096901630368012143F0040303604161A7
:105760000260BDE8F0870000000001400004004036
:1057700000080040000C00400004014000400140CF
:10578000004401400048014000E0004000E40040C7
:1057900042EA032283680A4323F47F410A4382607A
:1057A00070470000034B82681A400A4342F0070129
:1057B000816070478FFFCFFF10B5036A046A23F042
:1057C0000A0324F00104046284690B4324F0F0010D
:1057D00041EA02118161036210BD10B5036A046AD7
:1057E00023F0A00324F010040462846943EA011149
:1057F00024F4704343EA02328261016210BD00006A
:1058000030B5416EB9B101680D4B03F108048A68E7
:105810008968C2F34262490F5D5C615C2D01B5FB92
:10582000F1F1A0F86A10995CA25C0901B1FBF2F1F8
:10583000A0F8681030BD0121A0F86A10F8E7000058
:105840008088000890F82810090706D50168836B46
:105850004A6822F400421A434A6090F82810C907A7
:1058600006D00168C36A4A6822F400321A434A60CB
:1058700090F82810890706D50168036B4A6822F45E
:1058800080321A434A6090F82810490706D501680B
:10589000436B4A6822F480221A434A6090F8281029
:1058A000C90606D50168C36B8A6822F480521A4380
:1058B0008A6090F82810890606D50168036C8A680A
:1058C00022F400521A438A6090F82810490611D534
:1058D0000168436C4A6822F480121A434A60416CA2
:1058E000B1F5801F06D10168836C4A6822F4C002BA
:1058F0001A434A6090F82810090606D50168C26C60
:10590000486820F400201043486070472DE9F843B0
:1059100000250446C0F89050FDF742F98046206803
:1059200020266FF07E470068000713D5002243460B
:1059300031042046009700F04FFD58B1216851E82E
:10594000000F20F0800041E80002002AF6D1C4F8E0
:10595000886021E020680068400722D50022434685
:105960004FF480012046009700F036FDC8B1206852
:1059700050E8001F21F4907140E80012002AF6D18F
:105980002068083050E8001F21F0010140E80012B3
:10599000002AF5D1C4F88C60032084F88450BDE857
:1059A000F883C4F88860C4F88C60E5662567002039
:1059B00084F88450F3E710B5806B0021A0F85E10E6
:1059C000FEF79FFF10BD000010B5026852E8001FEF
:1059D00021F4907142E80013002BF6D10E4B0268BF
:1059E000083252E8001F194042E80014002CF6D19A
:1059F000C16E012908D1026852E8001F21F0100190
:105A000042E80013002BF6D100212022C0F88C20A0
:105A1000C166416710BD0000FEFFFFEF10B5D0F872
:105A20008C10B0F860202229016804D0886940F009
:105A30000800886110BD496A836D11401980816D2D
:105A4000891C8165B0F85E10491EA0F85E10B0F8A0
:105A50005E100029EED1016851E8002F22F4907207
:105A600041E80023002BF6D10168083151E8002FEE
:105A700022F0010241E80023002BF5D1184B002150
:105A800002682024C0F88C40416701679A420BD01D
:105A90005268120208D5036853E8002F22F0806292
:105AA00043E80024002CF6D1C26E012A02D0FFF791
:105AB000D3F910BDC166026852E8001F21F0100141
:105AC00042E80013002BF6D10168CA69D243D2061E
:105AD00001D410220A62B0F85C10FEF7C2FE10BDBD
